:100000003EC4000058C4000056C4000054C40000A0
:1000100052C4000050C400004EC400004CC4000094
:100020004AC4000048C4000046C400000C94FF0904
:1000300042C4000040C400003EC400003CC40000B4
:100040003AC4000038C4000036C4000034C40000C4
:1000500032C4000030C400002EC400002CC40000D4
:100060002AC4000028C400003C2F613E0044530015
:10007000414443004E4300202D20003E50002564A3
:10008000003C62723E3C6120687265663D2F002F25
:100090003F63663D313E436F6E6669673C2F613E4C
:1000A0003C62723E2D2D20506F727473202D2D00F6
:1000B0004D656761442D333238203C61206872659C
:1000C000663D687474703A2F2F61622D6C6F672ED5
:1000D00072753E61622D6C6F672E72753C2F613EAA
:1000E000202866773A20332E35376232293C6272F7
:1000F0003E3C6120687265663D2F00446F6E65006E
:10010000223E3C62723E737276206C6F6F70203CB0
:10011000696E70757420747970653D636865636B92
:10012000626F78206E616D653D736C2076616C75D1
:10013000653D3100323E4D656761642D4944203C88
:10014000696E707574206E616D653D6D64696420C3
:1001500076616C75653D2200536372697074203C52
:10016000696E707574206E616D653D736374207681
:10017000616C75653D220025642E25642E25642E54
:1001800025643A25753E3C62723E003E3C62723EFA
:10019000535256203C696E707574206E616D653DDA
:1001A0007369702076616C75653D004757203C6926
:1001B0006E707574206E616D653D67772076616C39
:1001C00075653D25642E25642E25642E256400501A
:1001D0007764203C696E707574206E616D653D704A
:1001E00077642076616C75653D22004950203C693A
:1001F0006E707574206E616D653D65697020766105
:100200006C75653D25642E25642E25642E256400BD
:10021000313E0063662076616C75653D002F3E00BF
:100220002F3F63663D313E436F6E6669673C2F61C9
:100230003E3C62723E002F3F63663D323E4D656735
:1002400061642D49443C2F613E3C62723E003E4257
:1002500061636B3C2F613E207C203C6120687265AD
:10026000663D2F003E4261636B3C2F613E3C6272F3
:100270003E526573746172746564002A003B003EEF
:1002800069423C2F73656C6563743E003E31573C98
:100290006F7074696F6E2076616C75653D34003ED9
:1002A0004448543C6F7074696F6E2076616C75655C
:1002B0003D33003C62723E53656E203C73656C6555
:1002C0006374206E616D653D643E3C6F7074696F50
:1002D0006E2076616C75653D320020636865636BE6
:1002E00065643E203C696E707574206E616D653D7D
:1002F0006D322073697A653D332076616C75653D9A
:10030000003C62723E536D6F6F7468203C696E7082
:10031000757420747970653D636865636B626F788E
:10032000206E616D653D6D6973632076616C7565E6
:100330003D31003E50574D3C2F73656C6563743EF4
:10034000003E53573C6F7074696F6E2076616C7518
:10035000653D31003C62723E4D6F6465203C7365C3
:100360006C656374206E616D653D6D3E3C6F7074AD
:10037000696F6E2076616C75653D30003E313C2FB3
:1003800073656C6563743E003E303C6F7074696FDA
:100390006E2076616C75653D31003C73656C6563FC
:1003A00074206E616D653D643E3C6F7074696F6E64
:1003B0002076616C75653D30003C696E7075742007
:1003C0006E616D653D642073697A653D33207661A9
:1003D0006C75653D003C62723E44656620003E3CA3
:1003E00062723E526177203C696E70757420747938
:1003F00070653D636865636B626F78206E616D65E3
:100400003D642076616C75653D31003E523C2F7332
:10041000656C6563743E203C696E707574207479F8
:1004200070653D636865636B626F78206E616D65B2
:100430003D6D6973632076616C75653D31003E509A
:1004400026523C6F7074696F6E2076616C75653DE5
:1004500032003E503C6F7074696F6E2076616C752F
:10046000653D31003C62723E4D6F6465203C7365B2
:100470006C656374206E616D653D6D3E3C6F70749C
:10048000696F6E2076616C75653D3000223E203CC0
:10049000696E70757420747970653D636865636B0F
:1004A000626F78206E616D653D6E61662076616C6D
:1004B00075653D31002F003A25750025642E2564B1
:1004C0002E25642E256400223E3C62723E4E6574E9
:1004D000203C696E707574206E616D653D65746851
:1004E0002076616C75653D22003C62723E4163740A
:1004F000203C696E707574206E616D653D65636D3D
:10050000642076616C75653D22003E3C62723E4817
:100510007374203C696E707574206E616D653D6802
:1005200073742076616C75653D003E3C3E3C2F73D4
:10053000656C6563743E3C62723E56616C203C693A
:100540006E707574206E616D653D6D6973632076A4
:10055000616C75653D003E3C3C6F7074696F6E2048
:1005600076616C75653D33003E3E3C6F7074696F1B
:100570006E2076616C75653D32003E4E3C6F707446
:10058000696F6E2076616C75653D31004D6F6465F5
:10059000203C73656C656374206E616D653D6D3ED6
:1005A0003C6F7074696F6E2076616C75653D3000CC
:1005B0003C2F73656C6563743E003E414443003CD0
:1005C0006F7074696F6E2076616C75653D32003EA8
:1005D0004453656E003E4F75743C6F7074696F6E66
:1005E0002076616C75653D33003E496E3C6F7074DA
:1005F000696F6E2076616C75653D31003E4E433CFF
:100600006F7074696F6E2076616C75653D30005453
:10061000797065203C73656C656374206E616D65EF
:100620003D7074793E3C6F7074696F6E2076616CBA
:1006300075653D32353500706E2076616C75653DAF
:10064000002F3E002F002F00683A002F003C6272FE
:100650003E743A003A303E4F46463C2F613E3C6283
:10066000723E003A313E4F4E3C2F613E203C6120AD
:10067000687265663D2F002F003E203C696E7075E4
:100680007420747970653D7375626D69742076614C
:100690006C75653D6368616E67653E3C2F666F7281
:1006A0006D3E003E50574D203C696E707574206E53
:1006B000616D653D70776D2073697A653D33207695
:1006C000616C75653D0070742076616C75653D00E8
:1006D0002F3E003C62723E3C666F726D20737479EF
:1006E0006C653D646973706C61793A696E6C696EB2
:1006F0006520616374696F6E3D2F002F00500041CB
:10070000003E4261636B3C2F613E3C62723E0026BC
:10071000616C6C3D006D6469643D003F0048545459
:10072000502F312E302034303120556E6175746871
:100730006F72697A65640D0A0D0A556E6175746889
:100740006F72697A65640054727920687474703AC3
:100750002F2F69702F707764002F002F002F002F2C
:1007600000485454502F312E3020323030204F4B1F
:100770000D0A436F6E74656E742D547970653A205E
:10078000746578742F68746D6C0D0A0D0A00266309
:100790006D643D002F3F70743D004F4646004F4E44
:1007A00000494E004F555400223E3C62723E003ECE
:1007B0003C62723E003C62723E003C6120687265A1
:1007C000663D2F003E0020636865636B6564003CF6
:1007D000696E70757420747970653D6869646465CC
:1007E0006E206E616D653D003C62723E3C696E70CC
:1007F000757420747970653D7375626D69742076C7
:10080000616C75653D536176653E3C2F666F726D18
:100810003E003C666F726D20616374696F6E3D2FA0
:10082000002073656C6563746564000D0A5573651B
:10083000722D4167656E743A206D656761640D0ABB
:100840004163636570743A20746578742F68746DC1
:100850006C0D0A0D0A0020485454502F312E310DD2
:100860000A486F73743A200047455420000001087D
:100870000006040001450000820000400020112411
:100880001FBECFEFD8E0DEBFCDBF12E0A0E0B1E0E9
:10089000E2EEFDE602C005900D92A236B107D9F74F
:1008A00027E0A2E6B2E001C01D92AA37B207E1F745
:1008B000ACD70C94EF36A4CB8FEF80930C01089546
:1008C0000F931F93CF93DF93EB014AE250E0BC01FB
:1008D0008CE097E00E9461336AE571E08CE097E07C
:1008E0000E941D3310923C0720913C072430C8F42D
:1008F0000097B9F08E01020F111D4AE050E060E050
:1009000070E00E94DD31F801608380913C078F5FC9
:1009100080933C076AE571E080E090E00E941D331F
:10092000E3CF822FDF91CF911F910F910895613016
:1009300049F4DA01EDE2F1E08D91819381E0E33356
:10094000F807D1F70895623049F4DA01E7EAF6E0F2
:100950008D91819386E0ED3AF807D1F70895F894E8
:10096000E091E306F091E406908121E030E001C0DF
:10097000220F8A95EAF7322F309593239083E091E6
:10098000E906F091EA068081822B80838BED95E069
:100990000197F1F700C00000E091E906F091EA0646
:1009A000808183238083EAEDF0E03197F1F700C086
:1009B000E0916007F09161078081E1E0F5E0319717
:1009C000F1F7789482230895F894E091E306F0918A
:1009D000E406408121E030E0062E01C0220F0A9497
:1009E000EAF7922F909549234083E091E906F09130
:1009F000EA063081322B308329E22A95F1F700C0D4
:100A0000882339F0E091E906F091EA068081892394
:100A1000808385EE8A95F1F70000E091E906F09178
:100A2000EA0680818923808378940895F894E09180
:100A3000E306F091E406908121E030E0082E01C049
:100A4000220F0A94EAF7322F309593239083E09196
:100A5000E906F091EA069081922B908394E09A95B2
:100A6000F1F70000E091E906F091EA069081932306
:100A700090839AE39A95F1F70000E0916007F09176
:100A8000610720819BEB9A95F1F700C0789430E0E4
:100A900002C0359527958A95E2F7822F81700895D7
:100AA0001F93CF93DF93D82F162FC9E0C15031F099
:100AB000612F8D2F817088DFD695F8CFDF91CF9190
:100AC0001F9108951F93CF93DF93182FD9E0C0E0B3
:100AD000D15049F0812FAADF20E8829FC001112464
:100AE000C695C82BF5CF8C2FDF91CF911F9108951C
:100AF0001F93CF93DF93C82F32DF81114BC06C2F30
:100B00008CECCEDF6C2F8EEBCBDF8C2FDBDF182F46
:100B10008C2FD8DFD82F8C2F22DF6C2F8CECC0DFEE
:100B20006C2F84E4BDDFE091E906F091EA06908144
:100B300021E030E00C2E01C0220F0A94EAF7922B3C
:100B40009083E091E306F091E4069081922B9083EC
:100B5000E12FE295EF702D2F277080E1289F900103
:100B60001124E22B1F7041E752E0149FC001159F32
:100B7000900D1124D7FF03C0EF578051974264E6D0
:100B800070E00E947A31CB0124E6E202800D911DD3
:100B9000112402C088EC92E3DF91CF911F91089558
:100BA00098E02CE8362F3827869530FD8227669509
:100BB0009150C1F7089588EC80937C0080917A0071
:100BC000866880937A0083E294EF0197F1F700C082
:100BD000000080917A00806480937A0080917A008E
:100BE00086FDFCCF209178003091790044E6429F49
:100BF000C001439F900D11248F5A9E476AE770E011
:100C00000E947A31CB01089541E657E060E070E040
:100C10008CE793E00C94DD28DC012C912F3229F530
:100C2000FC01319680E0BF019191903231F09F320A
:100C300021F0BF018F5F8630B1F790E0681B790B20
:100C4000E0EAF6E0DF010D900020E9F7AD01415048
:100C50005109405A56404817590739F4CF010E94AC
:100C60005333892B11F481E008958FEF0895863076
:100C700019F487E490E007C0853019F488E490E027
:100C800002C084EB90E09093370780933607089575
:100C9000843479F48BE290E09093E4068093E30649
:100CA0008AE290E09093EA068093E90689E290E078
:100CB00021C0833479F488E290E09093E406809335
:100CC000E30687E290E09093EA068093E90686E2E5
:100CD00090E010C0823491F485E290E09093E406B5
:100CE0008093E30684E290E09093EA068093E9061D
:100CF00083E290E090936107809360070895ABE1F1
:100D0000B0E0E5E8F6E00C9497318C01362E4D8B7F
:100D1000288B86E496E4A0E08B879C87AD871092B1
:100D20003C0730E0212CEE24E394F12C862F90E058
:100D30006C01CC0CDD1CA6014D505D4F6A01AC016D
:100D400044595D4F5A8B498BDF8ACE8AAC014D5A8C
:100D50005C4F598F488FCE0101962C01B0903C0713
:100D60008B2D90E0F80101900020E9F73197E01B0E
:100D7000F10B8E179F0708F091C2F801E80FF91FD9
:100D800040814A3031F486E48B878C871F8230E0C3
:100D900049C14A3321F4333009F06DC2F1C14B33FC
:100DA00009F46BC2403709F46AC2413609F46BC2D8
:100DB0004B3209F46FC24E3709F46CC24D3209F45C
:100DC0006BC2311107C08B85863411F04C875CC231
:100DD0004B875AC2313029F0343008F482C13430A4
:100DE00059F494E6391641F0A88DB98D8C91811192
:100DF00003C0F601118210828C85863409F41C86AA
:100E0000CE010B963B8F4A8F0E94EE32A82EBB2458
:100E1000A7FCB0943501660C771CF301E35FFE4F2D
:100E200080819181DC012D91CD012E870E94EE32CF
:100E30004C014A8D3B8D4E3751F4F301E454FD4F84
:100E400080819181029711F436E001C035E0882D50
:100E50003B8F0DDF8E851CDFF501ED5CFC4F908133
:100E600080913C073B8D913009F0EEC0F501ED5AC1
:100E7000FC4F9081913009F0E7C041E0480F50E00D
:100E8000F80101900020E9F73197E01BF10B90E0A9
:100E90004E175F0740F4F801E40FF51F40814A53F5
:100EA000423008F0C1C0422D50E04801880E991E22
:100EB000D4018C91E7E0F0E0EC0FFD1FE40FF51F8B
:100EC0008083FE01E40FF51F10862E85243409F07F
:100ED000A5C0CE0107963B8F0E94EE32F301ED5084
:100EE000FD4F918380833B8D343049F4A0913607C8
:100EF000B09137078C91882311F011821082C301C1
:100F00008D5D9F4F3B8F0E94E935F301ED5EFC4FF5
:100F1000918380833B8D353008F46FC0D6018D916D
:100F20009C91009749F5E989FA89808181114DC02A
:100F3000E0913607F09137078081882321F0D401B2
:100F40008C918E3711F0353039F01082F301E45472
:100F5000FD4FF182E08262C0D501A459BD4F8C9152
:100F6000811102C08FEF8C938C918083F301E45444
:100F7000FD4F82E090E050C00197D9F5E09136072F
:100F8000F0913707353031F480818F3F59F08081FF
:100F90008F5F07C0363031F48081882319F080815B
:100FA0008150808381E0E989FA89808383E090E041
:100FB000AE89BF898D939C93E0913607F0913707F6
:100FC0008081F501E459FD4F22C0813091F4F30195
:100FD000E454FD4F80819181029728F482E090E0F3
:100FE0009183808302C0F182E082E989FA891082CC
:100FF00015C0A989BA891C9211C0009751F4E091DB
:101000003607F0913707D301AD50BD4F8C918083E7
:1010100005C0F301E451F94F9183808386E48B8707
:101020008C871F82212C30C1F801E80FF91F8081C5
:101030008A3209F426C1E7E0F0E0EC0FFD1FE20D73
:10104000F11D8083239420C1F801E80FF11D8081F8
:10105000813359F0833321F428892130B9F405C054
:10106000843389F44889411115C0E091E306F09179
:10107000E4068081D70102C0AA0FBB1F8A94E2F761
:101080004D018A2B29C08033C1F407C0288922234F
:1010900021F023C04889413001F5E091E306F09149
:1010A000E4068081D70102C0AA0FBB1F8A94E2F731
:1010B0004D0180948822808210C0823371F4E091C7
:1010C000E306F091E4068081A70102C0440F551F9A
:1010D0008A94E2F74A018427808386E48B878C8791
:1010E000D3C0323009F04CC0822D90E0F201E80FFD
:1010F000F91F4083FE01E80FF91F1282239481E05B
:101100008B0D90E0F80101900020E9F73197E01B8A
:10111000F10B8E179F0740F4F801E80FF91F80814B
:101120008A53823008F0B0C0B394B3945D89B50E91
:1011300086E18B1508F4A8C0032D10E04AE050E0CA
:1011400060E070E0C2010E94DD319B01AC01F8015A
:10115000EE0FFF1FEE0FFF1FE458FD4FA4E1B0E0BC
:101160000E948D316083718382839383F801E459F7
:10117000FD4FB08285E0D2011D928A95E9F78EC0BD
:10118000B394B0923C072DE031E03F872E8743E5D2
:1011900053E05C8B4B8B83E3882E83E0982EAE85E7
:1011A000BF856D907D90BF87AE87C30101960E9479
:1011B000EE325C01F30180816BDDAB89BC898D91DE
:1011C000BC8BAB8B813009F04CC0F4018081813045
:1011D00081F48A2D4CDD80913C07F801E80FF11D68
:1011E00080818033F1F5E0913607F0913707108266
:1011F00038C080913C07F801E80FF11D80818133F0
:1012000071F4E091E306F091E4068081970102C059
:10121000220F331FAA94E2F75901822B21C0803399
:1012200081F4E091E306F091E4068081A70102C019
:10123000440F551FAA94E2F75A01A094A822A08255
:1012400010C0823371F4E091E306F091E4068081EE
:10125000D70102C0AA0FBB1FAA94E2F75D018A273B
:101260008083BFEF8B1A9B0A2E853F852D5231401C
:1012700009F095CF08C031E007C030E005C032E08A
:1012800003C034E001C033E080913C078F5F80935E
:101290003C0764CD35E0B0CD36E0AECD6B96E2E1F3
:1012A0000C94B331AEE1B0E0E8E5F9E00C94A43180
:1012B000DC01F22E022F10E0F801EE0FFF1FE454C4
:1012C000FD4F11821082FE0131969E01215E3F4F3B
:1012D000CF011192E217F307E1F7F801ED5AFC4F45
:1012E0002081233031F4F801ED5BFC4F3081343044
:1012F00019F03FE03F1510F43FEF01C031E03093AB
:101300000C01A83CB105B9F564587C4FFB0110E015
:1013100000E0DF01A61BB70B9A014D3D510510F00F
:101320002CED30E0A217B307C8F421912D3011F055
:101330002A3039F4123039F020812A3051F71F5FFA
:10134000E8CF123049F4DC01A00FB11D2C930F5FE0
:101350000D3120F412E0DDCF10E0DBCFFC01E00F17
:10136000F11D10822981222309F445C023E040E0C9
:1013700064E6C5DC40C0F801ED5CFC4F8081811162
:1013800007C0F801E252FD4F80818F3F61F40DC02C
:10139000823039F4F801E252FD4F80818E3F19F41A
:1013A00004C0813011F0222331F18AE2ECE0F7E051
:1013B000DF011D928A95E9F727E1209FB001219F67
:1013C000700D11246D567E4F47E150E0CF010E9411
:1013D000D13580910C078F5F823050F0F801E252D6
:1013E000FD4F20812E5F40E06F2D8CE097E087DC81
:1013F00082E080930C016E96E5E00C94C0311F9260
:101400000F920FB60F9211242F923F924F925F923C
:101410006F927F928F929F92AF92BF92CF92DF9204
:10142000EF92FF920F931F932F933F934F935F93EE
:101430006F937F938F939F93AF93BF93EF93FF939C
:10144000CF93DF9300D000D0CDB7DEB78091DC0220
:10145000813099F48091080190910901A0910A01CD
:10146000B0910B010196A11DB11D809308019093CD
:101470000901A0930A01B0930B018091EE029091B3
:10148000EF02A091F002B091F10283309105A10525
:10149000B10558F00197A109B1098093EE0290932C
:1014A000EF02A093F002B093F10243E553E093E121
:1014B000A92E93E0B92E2CEEC22E26E0D22E83EF79
:1014C00092E09C838B833CE7E32E32E0F32E6CEBBF
:1014D000862E62E0962E7DE0272E71E0372E00E00A
:1014E00010E0412C512C32014394DA012D91AD01D1
:1014F000213009F043C0F801ED5CFC4F8081813060
:1015000009F07DC0F50180819181181619060CF053
:1015100076C0D6018D919C91009709F470C08130FE
:10152000910549F5F10180819181019649835A83A2
:101530000E94EE329CDBE0913607F0913707608124
:10154000AB81BC812D913C91862F90E049815A81DD
:101550008217930714F46F5F08C02817390714F433
:10156000615003C0D5011D921C926083F5018081FA
:101570009181D60135C00197F6013FC0D4018D910C
:101580009C911197009751F001978D939C93892B13
:1015900029F4F7014082518262827382F7018081CF
:1015A0009181A281B38183309105A105B10538F005
:1015B0000197A109B10980839183A283B38323306A
:1015C00091F4F801ED5BFC4F80818430C1F4AB8174
:1015D000BC818D919C9111971816190684F401977E
:1015E0008D939C930CC021110AC0EB81FC818081FA
:1015F0009181823091051CF00197918380830F5F68
:101600001F4FF2E0AF0EB11C82E0C80ED11CAB81BF
:10161000BC811296BC83AB83B4E0EB0EF11CE2E01C
:101620008E0E911CF2E02F0E311C0031110509F0D5
:101630005CCF89B1809530913F0783279091050158
:101640009823909590930501209104012823292740
:101650002093040189238223282F232390913D077F
:10166000922B90933D07382730933F078323209197
:101670003A07282B20933A0786B180953091380796
:1016800083279091030198239095909303012091D3
:101690000201282329272093020189238223282F4E
:1016A000232390913907922B909339073827309351
:1016B0003807832320915E07282B20935E0783B190
:1016C000809530913E078327909101019823909552
:1016D00090930101209100012823292720930001E4
:1016E00089238223282F232390916207922B9093A2
:1016F0006207382730933E07832320916307282B06
:101700002093630781E0809365020F900F900F9004
:101710000F90DF91CF91FF91EF91BF91AF919F918A
:101720008F917F916F915F914F913F912F911F9179
:101730000F91FF90EF90DF90CF90BF90AF909F9070
:101740008F907F906F905F904F903F902F900F9071
:101750000FBE0F901F901895F89490913A07892327
:10176000982790933A0778940895F89490913D07BC
:101770008923982790933D0778940895F894909141
:101780005E078923982790935E0778940895F894CC
:101790009091390789239827909339077894089571
:1017A000F89490916307892398279093630778941E
:1017B0000895F8949091620789239827909362077F
:1017C00078940895A1E0B0E0E8EEFBE00C94A63137
:1017D000182F862F49835CDAE091E906F091EA063A
:1017E0004981208181E090E0042E01C0880F0A9495
:1017F000EAF7113319F4282B208303C08095822344
:1018000080832196E3E00C94C231A8E3B0E0EBE0E2
:10181000FCE00C94973180E88093610010926100A5
:1018200080E08A95F1F744E050E066EF73E085EEE2
:1018300096E00E94D1358091E5068F3FB1F080930C
:10184000370180933D018091E606809338018093B3
:101850003E018091E7068093390180933F0180919A
:10186000E80680933A01809340018BE391E00E9467
:101870000D2E82E00E94092E80E08A95F1F766E73E
:1018800074E084E10E94F02D40E150E063E670E0F6
:1018900083E593E00E94D13540E150E063E570E0DC
:1018A00083E493E00E94D13540E150E063E470E0CE
:1018B00083E393E00E94D13540E250E063E270E0C0
:1018C00083E193E00E94D13589E093E00E94E13505
:1018D00080939F0688E093E00E94E13580939E0606
:1018E00081E290E00E94E935909375078093740738
:1018F000019631F480E590E090937507809374072A
:1019000046E050E06AE073E080EA96E00E94D1355C
:101910008091A0068F3F31F46CE571E080EA96E09B
:101920000E944C33209A80917A00866080937A00DE
:1019300080917C00806480937C0080917A00806834
:1019400080937A0010923C07DD24D39401E010E0EC
:10195000E0913C07E03108F03FC1AE2EB12C75019B
:10196000EE0CFF1CF701E35FFE4FA081B181CD902B
:10197000C0925F07CD010E94EE3280936402F701AE
:10198000E454FD4F11821082F501EE0FFF1FEE0FA0
:10199000FF1FE458FD4F1082118212821382F7015B
:1019A000ED50FD4F118210828C2D72D980913C0731
:1019B00090E0FC01ED5AFC4F2081213009F094C0E9
:1019C000E091E906F091EA062081C80100906402E6
:1019D00002C0880F991F0A94E2F7282B2083E09118
:1019E0003C07F0E0ED5BFC4F908180916402E09158
:1019F000E306F091E4062081913049F4A80102C089
:101A0000440F551F8A95E2F7242B20830AC0D80182
:101A100002C0AA0FBB1F8A95E2F7CD0180958223F1
:101A2000808380915F078434A1F4809164028630C2
:101A300019F484B58F7704C0853021F484B58F7D87
:101A400084BD07C0833029F48091B0008F7D8093DE
:101A5000B000E0913C07F0E0ED5CFC4F808181300C
:101A600009F096C080915F07843409F091C085B574
:101A7000826085BD80916402863039F417BC84B5DC
:101A8000806884BD84B5816084BD809164028530A6
:101A900039F418BC84B5806284BD84B5816084BD8E
:101AA00080916402833089F41092B4008091B00078
:101AB00080628093B0008091B00081608093B0001C
:101AC0008091B10082608093B10080916402CFD890
:101AD000A0913607B0913707E0913C07F0E0ED5B4D
:101AE000FC4F80818C9354C030915F072F3F21F4CD
:101AF000313409F04DC02EC0313461F12330D1F4BE
:101B0000FC01ED5BFC4F80818330A1F48091640285
:101B10000E94780580913C0790E0880F991FFC0196
:101B2000ED50FD4FDC01AD5EBC4F8D919C919183DA
:101B3000808310C0E091E906F091EA062081C80197
:101B40000090640202C0880F991F0A94E2F7809502
:101B50008223808380913C0790E0FC01ED5AFC4F8A
:101B60003081323021F020915F07213439F4FC01BB
:101B7000ED5CFC4F208121502E3F40F0333041F48A
:101B8000FC01ED5BFC4F8081833011F4D092DC02CC
:101B9000C0903C078C2D90E0FC01ED5AFC4F208159
:101BA0002250223020F020915F07213489F47C01FB
:101BB000EE0CFF1CC701805090400E94E935F701F0
:101BC000E451F94F91838083019611F411821082C0
:101BD000C394C0923C07BCCE809181008860809302
:101BE00081008091810084608093810084EF90E087
:101BF000909389008093880082E080936F007894AE
:101C00008BE391E00E94AE2763E371E087E391E00C
:101C10000E94B92744E050E06FE173E086E497E06A
:101C20000E94D135809146078F3F41F444E050E057
:101C300063E273E086E497E00E94D1354FE050E024
:101C400060E173E084E697E00E94D13545E050E022
:101C500063E073E080E497E00E94D1358091400713
:101C6000811103C08FEF8093400780914607815018
:101C70008E3F90F5289A47E954E061E086E497E0CA
:101C80000E94C32A88E293E290936B0280936A02D7
:101C90000E94BC2A8823B9F080916A0290916B025D
:101CA000892B89F06CE773E081E293E00E94CD2EEE
:101CB000BC018CE793E00E94BE2B80916A02909158
:101CC0006B020197E1CF289844E050E063E273E0B3
:101CD00086E497E00E94D13580E290E00E94E135F1
:101CE000813069F480EE9EE2A0E0B0E08093EE02E5
:101CF0009093EF02A093F002B093F10208C010920B
:101D0000EE021092EF021092F0021092F102809116
:101D100046078F3F21F10E948E2E882301F164E651
:101D200077E08CE097E00E944C3360E671E08CE055
:101D300097E00E942D33C0907407D09075075DE244
:101D4000E52E51E0F52E06E417E02CE534E04AE4F8
:101D500057E06CE077E08FE597E00E94892B28E25E
:101D600088E190E00FB6F894A895809360000FBECC
:101D7000209360001CAA1BAAFE0131964F011E0190
:101D8000F2E22F0E311CA8956CE773E081E293E03C
:101D90000E94CD2E5C018091DF06813031F48BE30F
:101DA00091E00E940D2E1092DF0610929D06B50163
:101DB0008CE793E00E94BE2B3C01F0900C01F7FCF5
:101DC000FDC08091C7068150843008F4F7C00091AF
:101DD0003B0710E0C8018D589F4F0E94E1358130CC
:101DE00041F422E0F21629F0809146078F3F09F076
:101DF000E2C041E1F42EF09EB001F19E700D11247D
:101E00006D577F4F44E050E0CE018F960E94D13550
:101E10008FA58F3F09F4CFC08AE2ECE0F7E0DF0145
:101E20001D928A95E9F700913B07F09E80011124ED
:101E30000D571F4F7801B4E0EB0EF11CC7010E9453
:101E4000E1358A3379F4C80105960E94E9356C01C1
:101E5000B801695F7F4F4AE050E08CE097E00E9454
:101E6000D1350AC04DE050E0B7018CE097E00E9408
:101E7000D13530E5C32ED12C43EA54E062E0CE01E7
:101E80008F960E94C32A88E893E190936B02809317
:101E90006A020E94BC2A81110FC0ECE0F7E00190B9
:101EA0000020E9F73197EC50F740DF01A65FB84F0B
:101EB0008C918A3381F518C080916A0290916B02EF
:101EC000892B59F36CE773E081E293E00E94CD2EF9
:101ED0005C01BC018CE793E00E94BE2B80916A02FA
:101EE00090916B020197D1CFA0913B07B0E0A25235
:101EF000BD4F8C9187FF0FC0E55FF84F9081933302
:101F000021F0943341F40C94D8268F3F11F00C94B7
:101F1000DA2681E38083809140078F5F8230E8F08A
:101F20006FE370E08CE097E00E943833892B19F062
:101F300066E671E002C068E671E08CE097E00E941E
:101F40002D3364EA71E08CE097E00E942D3360E469
:101F500077E08CE097E00E942D338AA91F928F933F
:101F600089A91F928F9388A91F928F938FA51F9283
:101F70008F938AE691E09F938F938AE497E09F93F3
:101F80008F930E94EF33289A27EAE22E26E0F22E62
:101F90008E01015D1F4F2CE534E04AE457E06CE010
:101FA00077E08DE597E00E94892B28980FB6F8948A
:101FB000DEBF0FBECDBF8FEF80930C0110923C07A8
:101FC0009CE0492E97E0592E00913C07003108F023
:101FD000C8C410E0F801ED5AFC4F8081813009F44B
:101FE000BAC4F801EE0FFF1FE35FFE4F80819181BD
:101FF000DC012D91CD0120935F070E94EE3280938A
:102000006402F801EE0FFF1FEE0FFF1FE458FD4FB3
:1020100080819181A281B3810197A105B10589F5E4
:1020200010821182128213828AE2F20111928A9541
:10203000E9F787E1809FB001819F700D11246D56F3
:102040007E4F47E150E08CE097E00E94D1358091CF
:102050000C078F5F823068F060913C07E62FF0E05C
:10206000E252FD4F20812E5F40E08CE097E00E941D
:102070007F061092C70682E080930C018FEF809359
:102080002D0120913C0730E0F901ED5AFC4F808191
:102090008823C1F0823071F090915F07913451F044
:1020A000833009F0CDC3F901ED5BFC4F9081933093
:1020B00008F4C6C3F901E252FD4F908119160CF4E1
:1020C0007BC0BEC3F901ED5BFC4F508140916402BF
:1020D00080915F07513011F0573089F5843411F445
:1020E00089B105C0833411F486B101C083B190E099
:1020F00002C0959587954A95E2F7182F10951170B3
:10210000513019F4112351F015C0573039F4111121
:102110000C94B92681E080830FEF63C0D901AD5CD8
:10212000BC4F8C91823011F00C94BA26112311F41B
:102130000C94BA2687E0808311E00C94BA2684348C
:1021400091F481E001C0880F4A95EAF705DB182F6A
:1021500081E090E00090640202C0880F991F0A9409
:10216000E2F703DB13C08334A9F481E001C0880FD8
:102170004A95EAF703DB182F81E090E000906402B3
:1021800002C0880F991F0A94E2F701DB082F811122
:1021900028C036C081E001C0880F4A95EAF700DB0D
:1021A000182F81E090E00090640202C0880F991F10
:1021B0000A94E2F7FEDAEACFF901ED5BFC4F2081E9
:1021C000233041F0823031F080915F07813411F08B
:1021D0000C94B92611E0913009F010E011950C949F
:1021E000BA26E0913C07F0E0DF01AD5ABC4F8C917C
:1021F000811106C0EE0FFF1FED50FD4F11821082BE
:1022000020913C0730E0F901E252FD4F8081181621
:102210008CF420913C0730E0F901ED5BFC4F8081AC
:10222000D901AD5ABC4FF901E252FD4F833009F09C
:102230004BC044C0F901ED5CFC4F80819FEF980FCB
:102240009E3F18F01111E5CF06C0813021F4111125
:10225000E0CF0111DECFF901ED5AFC4F80818823D8
:1022600051F0E0913C07F0E0DF01AD5CBC4F8C9198
:102270008230C9F416C0F901EE0FFF1FED5EFC4F6E
:1022800080819181019769F7111102C0002349F300
:10229000809146078F3F29F30E948E2E8111B9CF7E
:1022A000E0CF0111B6CFEE0FFF1FE454FD4F808148
:1022B00091818739910508F0ACCFC2C28C918330EF
:1022C00019F4112319F006C0002311F08EEF05C098
:1022D000112311F08FEF01C08DEF8083F901ED5CC8
:1022E000FC4F60818FEF860F8E3F18F0111108C0F0
:1022F00025C0623019F4011103C020C06130F1F42F
:10230000C901880F991FFC01E454FD4F40815181A0
:102310004639510598F4FC01ED50FD4F4081518143
:102320004130510559F04C91411108C0FC01E45174
:10233000F94F808191810196918380838C918111E5
:1023400012C0623081F0112371F0F901EE0FFF1F0E
:10235000ED50FD4F808191811816190624F088EC0C
:1023600090E091838083809146078F3F09F418C2E3
:102370000E948E2E882309F413C290912D019F3F55
:1023800011F41092C7068091C7068150843008F47A
:10239000E2C19F3F09F046C044E050E06FE173E0C6
:1023A00086E497E00E94D135809146078F3F41F443
:1023B00044E050E063E273E086E497E00E94D135A8
:1023C00047E954E061E086E497E00E94C32A88E888
:1023D00093E190936B0280936A020E94BC2A811160
:1023E00009C044E050E063E273E086E497E00E94B5
:1023F000D13518C080916A0290916B02892B89F3C4
:102400006CE773E081E293E00E94CD2E5C01BC0199
:102410008CE793E00E94BE2B80916A0290916B0240
:102420000197D7CF80913C074AE0B10190E00E942C
:102430009733809149071F928F93809148071F928D
:102440008F93809147071F928F93809146071F9229
:102450008F93AAE6B1E0BF93AF93AAE4B7E0BF932E
:10246000AF930E94EF3364E677E08CE097E00E9440
:102470004C3366E771E08CE097E00E942D33B101A8
:102480008CE097E00E942D3300913C0710E0F801AA
:10249000ED5AFC4F90810FB6F894DEBF0FBECDBF52
:1024A00091113BC0A80142525D4F7A01DA018C9133
:1024B000000F111F8E3F39F46BE771E08CE097E05D
:1024C0000E942D3313C0F801ED50FD4F6F01808144
:1024D0009181019759F460E871E08CE097E00E94E7
:1024E0002D33D6011D921C92F7011082F801E451A0
:1024F000F94F81818F9380818F935F924F92A5E8EE
:10250000B1E0BF93AF935F924F920E94EF330FB64B
:10251000F894DEBF0FBECDBFA8C0923069F09330F3
:1025200031F4F801ED5BFC4F8081833029F080911C
:102530005F07813409F044C06FE871E08CE097E0F8
:102540000E942D33F801EE0FFF1FED50FD4F4AE0C2
:10255000B401808191810E949733B4018CE097E0AF
:102560000E942D3363E971E08CE097E00E942D33E7
:1025700000913C0710E0C801880F991FFC01ED5045
:10258000FD4FDC01AD5EBC4F208131818D919C916E
:10259000821793071CF46EE771E002C066ED71E0EC
:1025A0008CE097E00E942D33F801ED5AFC4F8081BA
:1025B000823009F05AC0F801E252FD4F108255C036
:1025C000933009F052C0F801ED5BFC4F90819430DC
:1025D00009F04BC00E9448066091640283E30E94A8
:1025E0005005809164020E946205682F80E00E947D
:1025F000D005182F69E971E08CE097E00E942D3337
:1026000007E00150809164020023F1F00E9462050E
:10261000F82E1F928F93AEE9B1E0BF93AF939F92D4
:102620008F920E94EF33B4018CE097E00E942D332B
:102630006F2D812F0E94D005182F0F900F900F90B3
:102640000F900F900F90DDCF0E94620518130FC0FE
:10265000112369F0E0913C07F0E0EE0FFF1FED5011
:10266000FD4F06E910E01183008310E001C011E086
:10267000809140078F3F61F063EA71E08CE097E062
:102680000E942D3360E477E08CE097E00E942D33C8
:1026900080913C0780933B07111116C0289AC09087
:1026A0007407D0907507EDE2EE2EE1E0FE2E06E411
:1026B00017E022E539E04AE457E06CE077E08BE58B
:1026C00097E00E94892B289880913C0790E0FC01BC
:1026D000ED5CFC4F2081211107C0FC01E252FD4F4F
:1026E00020812F3F61F411C0223039F4FC01E25205
:1026F000FD4F20812E3F19F408C0213031F0FC013C
:10270000ED5AFC4F2081222349F0FC01EE0FFF1F00
:10271000E454FD4F26E930E0318320838091EE02BE
:102720009091EF02A091F002B091F1020197A109FE
:10273000B109873E9340A105B105E0F488EE93E02E
:10274000A0E0B0E08093EE029093EF02A093F0023D
:10275000B093F1020FC0E0913C07F0E0EE0FFF1FD5
:10276000E454FD4F80819181892B21F4AAEFB0E0E0
:10277000B183A08380913C0790E0FC01ED5AFC4FAF
:102780002081233009F05CC0FC01ED5BFC4F20810F
:10279000243009F055C0FC01E252FD4F108250C0B8
:1027A000809146078F3F89F440913C07242F30E009
:1027B000F901EE0FFF1FED50FD4F808191810197D0
:1027C00049F081E080930C0105C00E948E2E882381
:1027D00059F336C0F901ED5AFC4F8081833051F432
:1027E000F901ED5BFC4F8081833021F0F901E25269
:1027F000FD4F108240933B078AE2F20111928A95C5
:10280000E9F787E1829FB001839F700D11246D5617
:102810007E4F47E150E08CE097E00E94D1358091F7
:102820000C078F5F823060F0112311F021E001C0AE
:1028300020E040E060913C078CE097E00E947F063A
:1028400020913C0730E0F901EE0FFF1FEE0FFF1F54
:10285000E458FD4F80819181A281B3810297A10547
:10286000B10579F51082118212821382F901E459BF
:10287000FD4F808190E047E150E0481B590BE7E1B4
:10288000E29FB001E39F700D11246D567E4F680FDB
:10289000791FC4010E94D13560913C07862F90E0DA
:1028A000FC01E252FD4F20812D3F11F42EEF2083D9
:1028B00020812E5FFC01E459FD4F4081C4010E943C
:1028C0007F0680913C0790E0FC01ED5AFC4F20818F
:1028D000211116C0FC01ED5CFC4F20812230D9F1A2
:1028E000FC01EE0FFF1FED50FD4F208131812130A3
:1028F000310589F5FC01E252FD4F21E020832BC018
:10290000233049F5FC01ED5BFC4F2081243019F5A3
:10291000FC01EE0FFF1FED50FD4F80819181892B4F
:10292000D1F480915F070E944806809164020E9462
:10293000AF04E0913C07F0E0811105C0E252FD4F89
:1029400081E0808308C0EE0FFF1FED50FD4F01E0D6
:1029500010E01183008380913C078F5F80933C07D8
:1029600033CB8091DC02813009F004C180910801F1
:1029700090910901A0910A01B0910B01893E934009
:10298000A105B10508F4F6C010923C0712E0412EF3
:1029900080913C07803108F0E5C0E82EF12C6701FA
:1029A000CC0CDD1CF601E35FFE4F0190F081E02DC1
:1029B000519050925F07CF010E94EE3280936402E3
:1029C000F701ED5AFC4F4081423059F0433031F469
:1029D000F701ED5BFC4F2081233019F021E4521206
:1029E000BBC0F601ED5EFC4F2081318121153440E2
:1029F00034F4F701ED5CFC4F2081211104C0433019
:102A000009F0AAC002C04330A9F4852D0E944806EF
:102A1000809164020E9478058433A1E29A07E1F470
:102A2000E0913C07F0E0EE0FFF1FED50FD4F80817D
:102A3000918112C0805C80937C0080917A008064D8
:102A400080937A0080917A0086FDFCCF8091780097
:102A50002091790090E0922B40913C0750E0FA01E0
:102A6000ED5CFC4F60819A01220F331F6130E1F46D
:102A7000F901ED5EFC4F60817181F901E451F94F7C
:102A80000190F081E02D6E0F7F1F681779070CF021
:102A90005EC0F901ED50FD4F0190F081E02D6E1701
:102AA0007F070CF046C053C06230D9F4F901ED5EE7
:102AB000FC4F60817181F901E451F94F0190F0817F
:102AC000E02D6E1B7F0B861797070CF040C0F901B5
:102AD000ED50FD4F0190F081E02DE617F7074CF522
:102AE00036C06330A1F5F901ED5EFC4FC080D180A6
:102AF000D901A451B94F6D917C91D601A60FB71F92
:102B0000A817B90744F4F901ED50FD4FE080F180BA
:102B1000AE15BF0574F4F601E61BF70B8E179F0781
:102B2000B4F4D901AD50BD4F6D917C916E177F0704
:102B300074F0FA01E252FD4F4082D901AD5EBC4F04
:102B40004D915C914817590714F401E00083F90195
:102B5000ED50FD4F9183808380913C078F5F809380
:102B60003C0716CF109208011092090110920A0139
:102B700010920B018091EE029091EF02A091F00271
:102B8000B091F1020197A105B10509F0CFC0809184
:102B9000C7068150843008F4ADC040E02BA93CA9A1
:102BA00024583C4F443690F4842F90E0F901E80F0C
:102BB000F91F56A984589C4FFC01E454FD4F5A322A
:102BC00011F4108201C050834F5FECCF40933C075B
:102BD00080912D018F3F09F046C044E050E06FE145
:102BE00073E086E497E00E94D135809146078F3FDD
:102BF00041F444E050E063E273E086E497E00E9431
:102C0000D13547E954E061E086E497E00E94C32AA9
:102C100088E893E190936B0280936A020E94BC2A39
:102C2000811109C044E050E063E273E086E497E07C
:102C30000E94D13518C080916A0290916B02892B55
:102C400089F36CE773E081E293E00E94CD2E5C0192
:102C5000BC018CE793E00E94BE2B80916A029091A8
:102C60006B020197D7CF809149071F928F93809174
:102C700048071F928F93809147071F928F938091EF
:102C800046071F928F938AE691E09F938F938AE481
:102C900097E09F938F930E94EF33289A80E180936F
:102CA0003B07C0907407D09075075DE2E52E51E0B8
:102CB000F52E06E417E022E539E04AE457E068E340
:102CC00076E089E597E00E94892B289820EE3EE285
:102CD00040E050E02093EE023093EF024093F00288
:102CE0005093F1020FB6F894DEBF0FBECDBF1CAA01
:102CF0001BAA11C088EE93E0A0E0B0E08093EE0242
:102D00009093EF02A093F002B093F1028091F2024F
:102D10008F5F8093F2028091F202863039F4109234
:102D2000F2021092C7068FEF80932D018091EE0280
:102D30009091EF02A091F002B091F1020297A105EB
:102D4000B10509F4A7C06114710409F081C0AB2872
:102D500009F419C880919303813109F014C8F090E7
:102D6000A6039AEAF9120FC802E813E020E134EA58
:102D700046E953E060E27BEC8CE793E00E94F729A0
:102D8000F092A6038091A8038C30D9F420E0822F22
:102D900090E0FC01E458FC4FDC01A95CBE4F8C9133
:102DA00083A781E0820F843010F4282FF0CF809326
:102DB0003C0765E070E08CE793E00E94452A0C94A4
:102DC000C30E843011F00C94C30E20E030E02430A8
:102DD00070F4822F90E0FC01EA55FC4FDC01A95C05
:102DE000BE4F40858C91481331E02F5FF0CF209388
:102DF0003C0731110C94C30E45E050E069EA73E0E2
:102E000080EA96E00E945333892B51F444E050E06D
:102E100066EF73E082EB93E00E94EE3581E001C043
:102E200082E08093A70362E070E08CE793E00E9469
:102E3000452A45E050E069EA73E080EA96E00E94A6
:102E40005333009711F00C94C30EFC010C94B6267A
:102E5000830100581C4F42E050E0B8018AEA91E03B
:102E60000E945333892B31F40E94040647E457E053
:102E70000C941D23C8010E940C068F3F59F44DE1AC
:102E800057E060E070E08CE793E00E94DD285C0191
:102E90000C94A1261982830100581C4F20EF31E0C9
:102EA00041E2B401C8010E94372F8823A1F06DEAE6
:102EB00071E0C4010E94433355245394892B09F0D7
:102EC000512C8981882341F023E040E064E6C4016D
:102ED0000E947F0601C0512C21EB31E043E063E604
:102EE00073E0C8010E94372FC090EE02D090EF022D
:102EF000E090F002F090F10281110FC064EB71E0FC
:102F0000C4010E944333892B41F0F2E0CF16D10473
:102F1000E104F10411F00C94D72083E693E00E94C1
:102F2000EE325C0164EB71E0C4010E944333892BF3
:102F300039F022E0C216D104E104F104C1F43DC02D
:102F4000D701C6010197A109B109873C9105A105E7
:102F5000B10598F588EC90E0A0E0B0E08093EE0237
:102F60009093EF02A093F002B093F10226C028EBF9
:102F700031E049E16CE077E0C8010E94372F8823F7
:102F800061F08CE097E00E94EE32F501FF27EE0F32
:102F9000FF1FE451F94F918380832CEB31E049E12D
:102FA0006CE077E0C8010E94372F81110C947F22DA
:102FB0007A2C442443944A0C05C030E1432E712CF2
:102FC000552453947501EE0CFF1CF701E35FFE4F8F
:102FD00080819181DC012D91CD0120935F070E94BA
:102FE000EE328093640221EC31E044E06CE077E063
:102FF000C8010E94372F882341F0409164026091FC
:103000005F0780910C070E94E20B25EC31E044E061
:103010006CE077E0C8010E94372F882309F464C070
:103020008CE097E00E94EE326C0129EC31E04BE03D
:10303000B101C8010E94372F97E0A92EB12CDD24E1
:1030400063E673E0C4010E944C336DEC71E0C4018F
:103050000E942D33C6010A2C02C0959587950A94CB
:10306000E2F780FF03C06FEC71E002C062ED71E037
:10307000C4010E942D33B101C4010E942D3363E6C7
:1030800073E0C4010E942D3365ED71E0C4010E941C
:103090002D3323E040E064E6C4010E947F06B1E0E6
:1030A000AB1AB10868F64091640260915F0780E353
:1030B0000E94E20B23E040E064E6C1010E947F062B
:1030C000D090640280915F070E944806E091E90673
:1030D000F091EA06208181E090E00D2C01C0880F7C
:1030E0000A94EAF7282B208328ED31E044E06CE0D5
:1030F00077E0C8010E94372F8823C9F18CE097E060
:103100000E94EE3220915F07243489F58C018F3FB5
:10311000910519F010F00FEF10E0C7018D5D9F4F82
:103120000E94E935D701AD5EBC4F11969C938E93FA
:10313000181619069CF4F701E451F94F20813181EA
:103140002115310519F02D933C9302C091838083A2
:10315000F701ED50FD4F1183008309C08091640297
:103160000E943706E0913607F091370700830E94EE
:1031700004069CAB8BAB8091EE029091EF02A09184
:10318000F002B091F1020297A105B10551F544E6B4
:1031900057E06BA97CA98CE793E00E9409294BE1D9
:1031A00057E0BC018CE793E00E94DD2820914007A6
:1031B0002F3F71F045E157E0BC018CE793E00E949E
:1031C000DD2840E457E0BC018CE793E00E94092928
:1031D0004FE057E0BC018CE793E00E94DD285C01E2
:1031E00002C0ABA8BCA870923C07C42CD12CF1E063
:1031F000CF1AD10804E610E080EEE82E81E0F82E28
:10320000E0913C07E41508F0B0C7F0E0EE0FFF1FB7
:10321000E35FFE4F0190F081E02D719070925F07A7
:10322000CF010E94EE3280936402872D0E944806EF
:1032300051103AC04AEB57E0B5018CE793E00E9489
:10324000DD2840EA56E0BC018CE793E00E940929A2
:1032500041E057E0BC018CE793E00E94DD28BC010F
:1032600080915F07813491F44FEF56E08CE793E053
:103270000E94DD28E0913C07F0E0EE0FFF1FE35FC6
:10328000FE4F408151814F5F5F4F08C04DEF56E0C8
:103290008CE793E00E94DD2843E653E0BC018CE715
:1032A00093E00E9409295C0150916402503108F0BA
:1032B00073C280913C0790E0FC01ED5AFC4F4081C5
:1032C000423021F020915F07213421F5511008C0D0
:1032D0004BEF56E0B5018CE793E00E94DD285C01DE
:1032E00080916402805C80937C0080917A0080648D
:1032F00080937A0080917A0086FDFCCF80917800DF
:103300002091790090E04AE06CE077E0922B0E94F7
:1033100097333AC2E091E906F091EA06208130E065
:1033200002C0359527955A95E2F720FF06C1413036
:1033300009F003C1FC01ED5CFC4F8081813009F094
:1033400072C0511032C043ED56E0B5018CE793E0F6
:103350000E94DD2840EA56E0BC018CE793E00E9421
:10336000092940ED56E0BC018CE793E00E94DD287E
:103370004FEC57E0BC018CE793E00E94DD2846EC5F
:1033800056E0BC018CE793E00E94DD2843E653E061
:10339000BC018CE793E00E94092943EA56E0BC0196
:1033A0008CE793E00E94DD285C0180915F07843404
:1033B00061F580913C0790E0880F991FFC01ED5E5C
:1033C000FC4F20813181121613065CF4511009C0A4
:1033D000FC01ED50FD4F4AE06CE077E08081918187
:1033E00012C080916402853011F488B508C086301F
:1033F00011F487B504C0833041F48091B4004AE0F1
:103400006CE077E090E00E9497334CE057E0B50124
:103410008CE793E00E9409295C01511092C649E7AC
:1034200056E0BC0184C0511008C047E756E0B50122
:103430008CE793E00E94DD285C01E091E306F091C7
:10344000E406808190E00090640202C09595879523
:103450000A94E2F780FF03C04EE957E002C04AE950
:1034600057E0B5018CE793E00E94DD285C01511024
:1034700068C645EB57E0BC018CE793E00E94DD286D
:103480004AEB57E0BC018CE793E00E94DD2840EA5C
:1034900056E0BC018CE793E00E94092944E957E01B
:1034A000BC018CE793E00E94DD2843E653E0BC01B9
:1034B0008CE793E00E9409294EE857E0BC018CE7B5
:1034C00093E00E94DD2843E653E0BC018CE793E0E3
:1034D0000E94092943E656E0BC018CE793E00E9474
:1034E000DD2840EA56E0BC018CE793E00E94092900
:1034F00044E957E0BC018CE793E00E94DD2843E6F5
:1035000053E0BC018CE793E00E9409294EE857E0A4
:10351000BC018CE793E00E94DD2843E653E0BC0148
:103520008CE793E00E94092944E556E0BC018CE752
:1035300093E00E94DD285C0131C1433009F0E2C014
:10354000FC01ED5BFC4F8081843009F425C11092B1
:1035500069021092680210926702109266028093CC
:10356000EB06511008C04DE456E0B5018CE793E03E
:103570000E94DD285C018091EB06833009F041C098
:10358000E0913C07F0E0EE0FFF1FED50FD4F208172
:103590003181283C42E3340739F46CED71E08CE072
:1035A00097E00E944C33F0C0C901B8010E947A3103
:1035B00037FF15C097FF03C09195819591099F939F
:1035C0008F93C901B8010E947A3171956195710993
:1035D0007F936F93AFEDB1E0BF93AF9306C09F931E
:1035E0008F937F936F93FF92EF928CE097E09F937E
:1035F0008F930E94EF330FB6F894DEBF0FBECDBF9E
:10360000C3C08091EE029091EF02A091F002B091C0
:10361000F1028D379E42A105B10548F087ED98EB88
:10362000A5E081509040A040E1F700C00000E0918B
:103630003C07F0E0ED5BFC4F408166E672E088E617
:1036400092E00E9464312091680230916902C901C0
:10365000B8010E947A3197FF03C091958195910935
:103660009F938F93C901B8010E947A317F936F9322
:10367000FF92EF928CE097E09F938F930E94EF333D
:103680004CE057E0B5018CE793E00E9409295C010A
:103690002091660230916702C901B8010E947A3117
:1036A00097FF03C09195819591099F938F93C901CD
:1036B000B8010E947A317F936F93FF92EF928CE072
:1036C00097E09F938F930E94EF330FB6F894DEBF7D
:1036D0000FBECDBF51100BC045EB57E0B5018CE7D5
:1036E00093E00E94DD2848E456E0BC0103C04BE4AF
:1036F00056E0B5018CE793E00E94DD284CE057E0EE
:10370000BC0145C0511008C046E456E0B5018CE745
:1037100093E00E94DD285C01E0916007F091610771
:10372000808190E00090640202C0959587950A948C
:10373000E2F780FD03C04EE957E002C04AE957E0D6
:10374000B5018CE793E00E94DD285C01E0913C0725
:10375000F0E0ED5AFC4F808181111EC044E456E038
:10376000B5018CE793E00E94DD285C01E0913C0705
:10377000F0E0EE0FFF1FE451F94F4AE06CE077E014
:10378000808191810E94A9334CE057E0B5018CE71C
:1037900093E00E9409295C015110D3C442E158E032
:1037A000B5018CE793E00E94DD2840EA56E0BC01B9
:1037B0008CE793E00E94092941E456E0BC018CE7C4
:1037C00093E00E94DD284FEC57E0BC018CE793E0CA
:1037D0000E94DD2847E356E0BC018CE793E00E949D
:1037E000DD2843E653E0BC018CE793E00E94092901
:1037F00044EC57E0BC018CE793E00E94DD28209167
:103800005F07213409F4A5C04FE056E0BC018CE706
:1038100093E00E94DD28E0913C07F0E0ED5AFC4F78
:1038200020812F3F39F441E258E0BC018CE793E05E
:103830000E94DD284CEF55E0BC018CE793E00E942C
:10384000DD28E091E906F091EA06208130E0009061
:10385000640202C0359527950A94E2F720FD0FC057
:10386000E0913C07F0E0ED5AFC4F2081211107C0A8
:1038700041E258E0BC018CE793E00E94DD2849EE6C
:1038800055E0BC018CE793E00E94DD28E091E90659
:10389000F091EA06208130E00090640202C0359584
:1038A00027950A94E2F720FF0FC0E0913C07F0E073
:1038B000ED5AFC4F2081213039F441E258E0BC013F
:1038C0008CE793E00E94DD2845ED55E0BC018CE7D4
:1038D00093E00E94DD28E0913C07F0E0ED5AFC4FB8
:1038E0002081233039F441E258E0BC018CE793E0B9
:1038F0000E94DD284FEC55E0BC018CE793E00E946C
:10390000DD2820915F072334E9F44FEB55E0BC013B
:103910008CE793E00E94DD28E0913C07F0E0ED5A4F
:10392000FC4F2081223039F441E258E0BC018CE7A1
:1039300093E00E94DD284AEB55E0BC018CE793E060
:103940000E94DD2840EB55E0BC018CE793E00E942B
:10395000DD2820913C0730E0F901ED5AFC4F508101
:1039600040915F07523061F0533031F4F901ED5B63
:10397000FC4F2081233021F0413409F0FCC009C004
:10398000413439F045EB57E0BC018CE793E00E94ED
:10399000DD284CE855E0BC018CE793E00E94DD286F
:1039A000E0913C07F0E0ED5CFC4F208121502E3F80
:1039B00038F041E258E0BC018CE793E00E94DD283A
:1039C0004AE755E0BC018CE793E00E94DD28E091D6
:1039D0003C07F0E0ED5CFC4F2081213039F441E2FE
:1039E00058E0BC018CE793E00E94DD2848E655E0F2
:1039F000BC018CE793E00E94DD28E0913C07F0E0F9
:103A0000ED5CFC4F2081223039F441E258E0BC01EA
:103A10008CE793E00E94DD2846E555E0BC018CE789
:103A200093E00E94DD28E0913C07F0E0ED5CFC4F64
:103A30002081233039F441E258E0BC018CE793E067
:103A40000E94DD284AE255E0BC018CE793E00E9429
:103A5000DD285C0180913C0790E0FC01ED5AFC4FB1
:103A60002081880F991FFC01ED5EFC4F233009F582
:103A700020813181C901B8010E947A3197FF03C0CA
:103A80009195819591099F938F93C901B8010E94E7
:103A90007A317F936F93FF92EF928CE097E09F9340
:103AA0008F930E94EF330FB6F894DEBF0FBECDBFE9
:103AB00019C08081918197FF03C010920C0712C03A
:103AC0009F938F93ACE8B1E0BF93AF938CE097E006
:103AD0009F938F930E94EF330F900F900F900F9052
:103AE0000F900F904CE057E0B5018CE793E00E94F7
:103AF00009294AE055E0BC018CE793E00E94DD28EB
:103B00005C0180913C0790E0FC01ED5AFC4F208164
:103B1000880F991FFC01E451F94F2330B9F48081DB
:103B20009181B8010E9466319F938F937F936F9329
:103B3000FF92EF928CE097E09F938F930E94EF3378
:103B40000FB6F894DEBF0FBECDBF07C04AE06CE0F1
:103B500077E0808191810E94A9334CE057E0B50164
:103B60008CE793E00E94092944EC57E0BC018CE704
:103B700093E00E94DD28E091E906F091EA062081B9
:103B800030E00090640202C0359527950A94E2F770
:103B900030913C0720FD07C0E32FF0E0ED5AFC4FC9
:103BA00020812223A9F0232F30E0F901ED5AFC4FA8
:103BB0004081423069F0433031F4F901ED5BFC4F54
:103BC0002081233029F020915F07213409F0E2C0E1
:103BD00049EE54E0BC018CE793E00E94DD285C01D3
:103BE00060913C0737E1369FB00111246D567E4F3E
:103BF00047E150E08CE097E00E94D13580910C07BE
:103C00008F5F823040F04CE057E0B5018CE793E0E5
:103C10000E9409295C0147EC54E0B5018CE793E070
:103C20000E94DD283C0160913C0741E1469FB001C4
:103C300011246D577F4F44E050E0CE018F960E94D3
:103C4000D1358FA58F3F09F483C09AA91F929F9306
:103C500099A91F929F9398A91F929F931F928F9348
:103C6000ABEBB4E0BF93AF931F92FAE2FF938CE00B
:103C7000A82E87E0B82EBF92AF920E94C233A50152
:103C8000B3018CE793E00E9409293C01D501EAE2E7
:103C90001D92EA95E9F720913C07F1E1F29F90012E
:103CA00011242D573F4FB9016C5F7F4FCB012DABD6
:103CB0003EAB6FAB78AF0E94E1350FB6F894DEBF34
:103CC0000FBECDBF2DA93EA96FA978AD8A3359F596
:103CD000C90105960E94E9359F938F93A7EBB4E045
:103CE000BF93AF931F92FAE2FF93BF92AF920E94ED
:103CF000C233A501B3018CE793E00E9409293C017E
:103D000060913C0721E1269FB001112466577F4F47
:103D10004AE050E0C5010E94D1350FB6F894DEBFED
:103D20000FBECDBF06C04DE050E08CE097E00E9492
:103D3000D13545EB54E0B3018CE793E00E94DD28D8
:103D40004CE057E0BC018CE793E00E9409293C015C
:103D50004CE854E0B3018CE793E00E94DD28BC01FD
:103D600080913C0790E08D589F4F6FAB78AF0E94D9
:103D7000E1356FA978AD813039F446EC57E08CE736
:103D800093E00E94DD28BC0144EC57E08CE793E00F
:103D90000E94DD28E091E906F091EA062081409139
:103DA000640230E0042E02C0359527950A94E2F7AC
:103DB00030913C0720FD82C0A32FB0E0AD5ABC4F2C
:103DC0002C9121117BC044E654E0BC018CE793E0C8
:103DD0000E94DD28E0913C07F0E0ED5CFC4F208183
:103DE00021502E3F38F041E258E0BC018CE793E0CF
:103DF0000E94DD2842E554E0BC018CE793E00E947C
:103E0000DD28E0913C07F0E0ED5CFC4F20812130A3
:103E100039F441E258E0BC018CE793E00E94DD28D0
:103E20004EE354E0BC018CE793E00E94DD28E09172
:103E30003C07F0E0ED5CFC4F2081223039F441E298
:103E400058E0BC018CE793E00E94DD284BE054E091
:103E5000BC018CE793E00E94DD28BC0180913C0707
:103E600090E0880F991F8D5D9F4F6FAB78AF0E94D8
:103E7000E9356FA978AD019739F446EC57E08CE746
:103E800093E00E94DD28BC014EED53E08CE793E007
:103E90000E94DD28E0913C07F0E0ED5BFC4F2081C3
:103EA000213011F0273039F446EC57E0BC018CE7A3
:103EB00093E00E94DD2844EC57E03AC1608170E055
:103EC00002C0759567954A95E2F760FFE5C0A32F9C
:103ED000B0E0AD5ABC4F2C91213009F0DDC045ED6A
:103EE00053E0BC018CE793E00E94DD28BC01E09127
:103EF0003C07F0E0ED5CFC4F80818130E9F449EB58
:103F000053E08CE793E00E94DD285C01E0913C07E0
:103F1000F0E0ED5BFC4F80814AE06CE077E090E000
:103F20000E9497334CE057E0B5018CE793E00E9484
:103F3000092944EC57E02DC04AE953E08CE793E0AF
:103F40000E94DD28E0913C07F0E0ED5BFC4F208112
:103F5000213039F041E258E0BC018CE793E00E9447
:103F6000DD2848E853E0BC018CE793E00E94DD289F
:103F7000E0913C07F0E0ED5BFC4F2081213039F40B
:103F800041E258E0BC018CE793E00E94DD284CE759
:103F900053E0BC018CE793E00E94DD2820915F078D
:103FA0002434D1F520916402233019F025502230B9
:103FB00098F544E553E0BC018CE793E00E94DD28CE
:103FC000E0913C07F0E0ED5CFC4F2081213039F0BE
:103FD00041E258E0BC018CE793E00E94DD2841E417
:103FE00053E0BC018CE793E00E94DD28E0913C07A0
:103FF000F0E0ED5CFC4F2081213039F441E258E0E3
:10400000BC018CE793E00E94DD2843E353E0BC0150
:104010008CE793E00E94DD28E0913C07F0E0ED5C46
:10402000FC4F2081213009F088C041E053E0BC0101
:104030008CE793E00E94DD28BC0180913C0790E072
:10404000880F991F8D5D9F4F6FAB78AF0E94E93548
:104050006FA978AD892BE9F04AED52E08CE793E047
:104060000E94DD285C0180913C0790E0880F991F39
:104070008D5D9F4F0E94E9354AE06CE077E00E9439
:1040800097334CE057E0B5018CE793E00E94092993
:10409000BC0144EC57E04DC0E32FF0E0ED5AFC4F7B
:1040A0002081233009F049C043EB52E0BC018CE78A
:1040B00093E00E94DD28E0913C07F0E0ED5BFC4FCF
:1040C0002081233038F441E258E0BC018CE793E0D2
:1040D0000E94DD284FE952E0BC018CE793E00E948A
:1040E000DD28E0913C07F0E0ED5BFC4F20812330C0
:1040F00039F441E258E0BC018CE793E00E94DD28EE
:104100004CE852E0BC018CE793E00E94DD28E0918E
:104110003C07F0E0ED5BFC4F2081243039F441E2B4
:1041200058E0BC018CE793E00E94DD284FE752E0A5
:10413000BC018CE793E00E94DD2848EE57E0BC010B
:1041400009C080913C0790E08C159D0544F44DE733
:1041500052E0B5018CE793E00E94DD285C0180917C
:104160003C078F5F80933C074BC88091EE02909193
:10417000EF02A091F002B091F1020297A105B10502
:1041800009F0DFC54BE752E0B5018CE793E00E94F0
:10419000DD2881E090E0A0E0B0E08093EE02909313
:1041A000EF02A093F002B093F1020C94C30E28EE3C
:1041B00031E049E163E673E0C8010E94372F8823AC
:1041C00009F43EC28AE2ECE0F7E0DF011D928A9535
:1041D000E9F783E693E00E94EE327C012BEE31E0BA
:1041E00049E16CE077E0C8010E94372F811121C0BE
:1041F0002FEE31E04AE26CE077E0C8010E94832FA5
:10420000882309F450C08CE097E00E94DF2F87E1FB
:104210008E9DB0018F9D700D11246D567E4F47E12C
:1042200050E08CE097E00E94EE3581E08093DD0263
:104230003AC08CE097E00E94EE32F701ED5AFC4F55
:104240006F01208130E02817390781F02FEFC70177
:104250008D5C9C4FDC012C9341E050E0B7016D5B1D
:104260007F4F0E94EE35BB24B39401C0B12C64EFA4
:1042700071E08CE097E00E944333892B89F08CE059
:1042800097E00E94EE32F601808341E050E0B701F2
:104290006D597F4FC6010E94EE3581E08093DD02AB
:1042A000B110BBC1A5CF27EF31E04AE26CE077E067
:1042B000C8010E94832F882309F47CC08CE097E01A
:1042C0000E94DF2F80910C07811104C08FEF8FA710
:1042D000512C4FC08DE0D1011D928A95E9F71092C3
:1042E0003C07512C20E0ECE0CE2EE7E0DE2E31E161
:1042F0003E9DC0013F9D900D11248D579F4F3C0165
:10430000B4E06B0E711C5C01E5E0AE0EB11C809157
:104310003C07F60101900020E9F73197EC50F74097
:1043200090E08E179F07F0F4FC01E45FF84F211135
:1043300035C580818A3309F020C56AE3C3010E9434
:10434000F73580913C0790E04AE050E060E070E093
:10435000835F984F0E94DD31C5010E94053673E0EE
:10436000572E0BC5BE01615D7F4F8CE097E00E9428
:10437000600481E18E9D60018F9DD00C1124960117
:104380002D573F4F690144E050E0B901CE018F96AF
:104390000E94EE35652D70E04DE050E0461B570B56
:1043A0006C5F7F4F6C0D7D1DC1010E94EE3581E079
:1043B0008093DD022BEF31E049E16CE077E0C8014A
:1043C0000E94372F97012D583F4F882311F061E04D
:1043D00001C060E0C9010E94F7352AED31E049E1F2
:1043E0006CE077E0C8010E94372F882381F08CE0D1
:1043F00097E00E94EE32F701ED5CFC4F808341E0D4
:1044000050E0B7016D5B7F4FCF010E94EE352BE28C
:1044100032E049E16CE077E0C8010E94372FB70134
:104420006D5A7F4F882381F08CE097E06FAB78AFB7
:104430000E94EE32F701ED5BFC4F808341E050E0DB
:104440006FA978ADCF0104C041E050E080E090E07A
:104450000E94EE352FEF31E048E06CE077E0C801D4
:104460000E94372F882309F44AC0F701ED5AFC4F08
:104470008081EE0CFF1C833079F56EE270E08CE0F9
:1044800097E00E9438336C010097A9F0DC01139685
:104490001C9201960E94EE32B82EF6010190002087
:1044A000E9F73397EC15FD0539F4880FB82EBB0CEE
:1044B000BB0CB80E01C0B12C8CE097E00E94EE322C
:1044C00024E6FC012E9FC0012F9F900D11248B0D1F
:1044D000911DB7FC9A9504C08CE097E00E94EE32E3
:1044E000F701E451F94F91838083F701E451F94FCB
:1044F00060817181C701805090400E9405362CEB8D
:1045000031E049E16CE077E0C8010E94372F882351
:1045100009F469C083E693E00E94EE327C0123E057
:1045200032E049E16CE077E0C8010E94372F870153
:10453000000F111F81114DC0F701ED5AFC4F808112
:10454000833009F046C06EE270E08CE097E00E9494
:1045500038337C010097B1F0DC0113961C92019670
:104560000E94EE32F70101900020E9F73397EE1533
:10457000FF0511F0F82E07C0880FF82EFF0CFF0C76
:10458000F80E01C0F12C8CE097E00E94EE3244E678
:10459000FC014E9FC0014F9F900D11248F0D911D66
:1045A000F7FC9A95F801ED5EFC4F91838083F8014A
:1045B000ED50FD4F9183808388E493E0A0E0B0E06C
:1045C0008093080190930901A0930A01B0930B0115
:1045D00015C08CE097E00E94EE32F801ED5EFC4FD2
:1045E000918380830BC083E693E00E94EE32FC014E
:1045F000EE0FFF1FED5EFC4F1182108283E693E009
:104600000E94EE32880F991FBC016D5D7F4F42E022
:1046100050E08D5E9C4F0E94EE350E9404064AEBEE
:1046200057E0BC018CE793E0C8D540EA56E0BC01F6
:104630008CE793E0EED544E652E0BC010C944317BE
:1046400026E032E042E063E673E0C8010E94372FC3
:10465000882309F4A2C283E693E00E94EE32F82E8A
:1046600029E032E049E163E673E0C8010E94372F98
:10467000882389F065EE76E083E693E00E9460048B
:1046800044E050E066EF73E085EE96E00E94EE3580
:1046900081E08093DD022DE032E049E163E673E0E2
:1046A000C8010E94832F882309F454C080916303BA
:1046B000811110C08FEF8093460780934707809346
:1046C00048078093490760E570E081E290E00E942E
:1046D000053606C066E477E083E693E00E94600456
:1046E00044E050E063E273E086E497E00E94EE3538
:1046F00010923C07A3E6B3E020913C07FD01019036
:104700000020E9F73197E356F340822F90E08E17AF
:104710009F07E8F4FC01ED59FC4F3081313489F4F6
:104720004AE050E060E070E08C599C4F0E94DD311F
:10473000709375076093740781E290E00E940536DC
:1047400006C03A3369F32F5F20933C07D5CF81E051
:104750008093DD0221E132E049E163E673E0C801C4
:104760000E94832F8823F9F08091630381110AC08E
:104770008FEF809346078093470780934807809385
:10478000490706C066E477E083E693E00E94600490
:1047900044E050E06FE173E086E497E00E94EE357C
:1047A00081E08093DD0224E132E049E163E673E0D9
:1047B000C8010E94832F882379F083E693E00E944A
:1047C000DF2F4FE050E060E173E083E693E00E946A
:1047D000EE3581E08093DD0228E132E049E163E6D5
:1047E00073E0C8010E94372F882389F046E050E02B
:1047F0006AE073E083E693E00E94EE3563E673E0DF
:1048000080EA96E00E944C3381E08093DD022CE147
:1048100032E045E063E673E0C8010E94832F8823FD
:1048200071F083E693E00E94EE3280939E06682F3B
:1048300088E093E00E94F73581E08093DD022FE16C
:1048400032E049E163E673E0C8010E94832F8823C8
:10485000E1F045E050E063E073E083E693E00E941E
:10486000EE3581E08093DD0224E232E049E163E647
:1048700073E0C8010E94372F882311F061E001C066
:1048800060E080E290E00E94F7350E9404068C010F
:1048900044E050E066EF73E085EE96E00E94D1358B
:1048A00044E050E063E273E086E497E00E94D13593
:1048B0004FE050E060E173E084E697E00E94D1357C
:1048C00045E050E063E073E080E497E00E94D1357A
:1048D0008091E5068F3F81F4809137018093E50652
:1048E000809138018093E606809139018093E70634
:1048F00080913A018093E8064AEB57E0B8018CE7D3
:1049000093E05BD440EA56E0BC018CE793E081D4AD
:104910004EE452E0BC018CE793E04FD440EA56E00D
:10492000BC018CE793E075D4F1E0FF1203C046E3CD
:1049300052E005C002E0F01206C040E252E0BC01C5
:104940008CE793E03AD442E158E0BC018CE793E075
:1049500034D440EA56E0BC018CE793E05AD44DE1F0
:1049600052E0BC018CE793E028D44FEC57E0BC0147
:104970008CE793E022D443E152E0BC018CE793E062
:104980001CD411E0F112D6C040E152E0BC018CE72A
:1049900093E013D47C018091E8061F928F9380915D
:1049A000E7061F928F938091E6061F928F93809166
:1049B000E5061F928F938BEE91E09F938F931F924A
:1049C0002AE2D22EDF920CE017E01F930F930E9491
:1049D000C233A801B7018CE793E01BD44FEA57E03C
:1049E000BC018CE793E0E9D34FEC51E0BC018CE7CC
:1049F00093E0E3D340EA56E0BC018CE793E009D4AE
:104A000048EA57E0BC018CE793E0D7D37C0144E04F
:104A100050E06FE173E086E497E00E94D135809129
:104A200049071F928F93809148071F928F9380911F
:104A300047071F928F93809146071F928F938BEAAF
:104A400091E09F938F931F92DF921F930F930E9489
:104A5000C233A801B7018CE793E0DBD34BE851E008
:104A6000BC018CE793E0A9D37C0144E050E063E211
:104A700073E086E497E00E94D135809175078F93AB
:104A8000809174078F93809149071F928F93809133
:104A900048071F928F93809147071F928F938091B1
:104AA00046071F928F9387E791E09F938F931F9202
:104AB000DF921F930F930E94C2330FB6F894DEBFAC
:104AC0000FBECDBFA801B7018CE793E0A2D348E5A4
:104AD00051E0BC018CE793E070D3209164072F5F15
:104AE000223030F044E657E0BC018CE793E091D3EC
:104AF00048EA57E0BC018CE793E05FD38C010E9449
:104B0000DB059F938F9327E232E03F932F932CE0B6
:104B100037E03F932F930E94EF334CE057E0B8010A
:104B20008CE793E076D30F900F900F900F900F903B
:104B30000F9030C032E0F3122DC044E351E0BC01CD
:104B40008CE793E03AD3209140072F5F223030F07A
:104B500040E457E0BC018CE793E05BD340E051E0D8
:104B6000BC018CE793E029D3BC0180E290E06FABFD
:104B700078AF0E94E1356FA978AD813031F446EC11
:104B800057E08CE793E019D3BC0144EC57E08CE785
:104B900093E013D348EE57E050CD2DE232E049E1E7
:104BA00063E673E0C8010E94372F882349F061E073
:104BB00085EF93E00E94F73582E08093DD02C1C06B
:104BC0000E940406BC018981882321F04BEF50E04C
:104BD0000C94431740EB50E08CE793E0EED240EAB0
:104BE00056E0BC018CE793E014D34FE850E0BC01E1
:104BF0008CE793E0E2D25C0110923C070EE710E0F4
:104C00008AE2D82E9CE0E92E97E0F92EE0913C074D
:104C1000E03108F096C0F0E0EE0FFF1FE35FFE4FBB
:104C200080819181DC012D91CD0120935F070E944D
:104C3000EE328093640241E850E0B5018CE793E0E6
:104C4000BCD240EA56E0BC018CE793E0E2D244E9F2
:104C500057E0BC018CE793E0B0D25C0180913C0747
:104C60001F928F931F930F931F92DF92FF92EF92E9
:104C70000E94C2334CE057E0B5018CE793E0C9D203
:104C8000BC010FB6F894DEBF0FBECDBF80915F07A9
:104C9000813479F444EC57E08CE793E08ED2E091D4
:104CA0003C07F0E0EE0FFF1FE35FFE4F40815181B4
:104CB00007C04BE750E08CE793E07FD24CE057E031
:104CC000BC018CE793E0A5D247E750E0BC018CE73C
:104CD00093E073D2E0913C07F0E0ED5AFC4F208165
:104CE000243038F030915F07313469F044E750E008
:104CF00017C0213019F444EA57E012C0211103C053
:104D000041EA57E00DC0223021F030915F07313485
:104D100019F440E750E004C0233031F44DE650E090
:104D2000BC018CE793E049D248E650E0BC018CE737
:104D300093E043D25C0180913C078F5F80933C07F6
:104D400065CF289AB5018CE793E02DD32898809100
:104D5000DD02813019F4E0E0F0E008C0823011F0AB
:104D60000C94C30EE0910601F091070109950C9493
:104D7000C30E10E000E00C940011E0913C07F0E05D
:104D8000E45FF84F21E080818F3231F480913C075D
:104D90008F5F80933C07BBCA20E0F8CFA1E2B0E070
:104DA000AC0FBD1FA20FB11D80818C932F5FEECF82
:104DB0008F3F19F480E30C948A0F8E3FD9F70C943F
:104DC000890FA0E0B0E0E7EEF6E20C949E31982E59
:104DD0006A0159018091C006981671F0E091BD06F4
:104DE000F091BE062FEF40E050E060E070E084EF0D
:104DF00091E0099580E05CC0611159C02D3031050A
:104E000008F455C0E090BD06F090BE06E114F10430
:104E100009F44DC0C091B506D091B606CC0DDD1D8C
:104E2000888590E00E941633892B09F1298530E0AE
:104E3000205331092A303105D0F40B8510E000539E
:104E400011090A30110598F44AE0429FC001439FBE
:104E5000900D1124CA85D0E0E097C80FD91F4C9F50
:104E6000D0014D9FB00D1124A00FB11F02C0A0E0D2
:104E7000B0E088E591E0EC012FEF692D70E03FEFA5
:104E8000EA91F0E0AE0148545140460F571FE41735
:104E9000F50721F42C2F205F281B3883E1E0C8346C
:104EA000DE0771F7A501B601CD01F701099581E093
:104EB000CDB7DEB7EBE00C94BA310F931F93FC0132
:104EC000CB01413051F4AB014850510960E070E032
:104ED0004F5E5F4F6F4F7F4F0FC0423051F4AB01B9
:104EE0004850510960E070E04A5F5F4F6F4F7F4F5D
:104EF00003C040E050E0BA018230910588F00081A3
:104F000010E020E030E0322F212F102F0027A18168
:104F10000A2B400F511F621F731F32960297ECCF6E
:104F2000892B61F0808190E0A0E0B0E0BA2FA92F3A
:104F3000982F8827480F591F6A1F7B1FCB01AA276C
:104F4000BB270097A105B10519F066277727F2CF97
:104F5000CA01809590951F910F910895009741F097
:104F600026E0FC01A9EDB6E001900D922A95E1F74B
:104F70000895009721F46115710559F40895DC0135
:104F8000E5EDF6E08D91819386E0E93DF807D1F7F4
:104F9000F2CFDB01E2E4F1E08D91819381E0E63430
:104FA000F807D1F70895DC015A96FB0180E02D91B6
:104FB0009191291305C08F5F8430C9F781E008956E
:104FC00080E0089569327105A8F0FC01248528303D
:104FD00089F42585263071F4DC019696E5EDF6E03E
:104FE0009D918191981306C086E0E93DF807C1F7CD
:104FF00081E0089580E00895FC016A327105B0F007
:105000008485883099F48585811110C08685853422
:1050100069F47E96A5EDB6E091918D91981306C046
:1050200086E0A93DB807C1F781E0089580E00895C2
:10503000CF93DF93E9EDF6E0DC0116962C91EC01BD
:105040002993CE0121912D93D6E0EF3DFD07B1F7D5
:10505000DF91CF910895CF93DF93EC01188E198ED5
:1050600080E48C8B1D8A8E8B40E064E170E0CE0181
:105070000E9623DF988F898FDF91CF910895CF937C
:10508000DF93EC016E96E5EDF6E0DC015A962C918B
:10509000299321912D9326E0E93DF207C1F7DBDF4B
:1050A000DF91CF910895FC01BA96DC019E96869619
:1050B0002291620F711D2E916C93442311F0208375
:1050C00001C01082672F7727E817F90789F708953D
:1050D000CF93DF93EC018CA19AA19CA38AA38DA10D
:1050E0009BA19DA38BA3CE01DEDF1AAA1BAA80E59C
:1050F0008EA7DF91CF910895CF93DF93EC0198DFD6
:105100001C8A82E08D8BCE01809649ED56E0DE014F
:1051100056962C91FC012193CF01FA012191AF0108
:105120002D93F6E04F3D5F07A1F7CE01869645ED42
:1051300056E0DE015C962C91FC012193CF01FA012F
:105140002191AF012D93F6E0493D5F07A1F7BE0124
:105150008AE290E0EBD5DF91CF9108950F931F93F2
:10516000CF93DF93EC018B0163DFCE0188DF1AA2BE
:105170009CA1983F18F08DA18F5F8DA3985F9CA391
:10518000BE01C801D3D5DF91CF911F910F91089532
:10519000FC01808990E0982F88272189822B4497F1
:1051A00026A522952F7034E0239F801991091124A0
:1051B00097FF02C080E090E00895FA012491222335
:1051C00099F0FC01E60FF71F26AB6C3E22E0720758
:1051D00010F46F5F7F4F6C3EE2E07E0711F46BEEE0
:1051E00072E04F5F5F4FE9CFCB010895FA012223B0
:1051F00071F03191DC01A60FB71FD6963C936C3E3F
:1052000032E0730710F46F5F7F4F2150F0CFCB0176
:105210000895FA0101900020E9F79F01215031091A
:10522000241B350BE3CFCF93DF939091C0068913F6
:105230002AC0C091B506D091B60648E658E060E0B5
:1052400070E0CE01BADF4091BB065091BC06BC01B4
:10525000CE01B3DF4091B9065091BA06BC01CE0130
:10526000D8DF46E558E0BC01CE01A7DF4091B70684
:105270005091B806BC01CE01CCDF4BE258E0BC0136
:10528000CE019BDF02C080E090E0DF91CF910895D6
:10529000A3E0B0E0EEE4F9E20C94A5318C014B837D
:1052A00069837A83C5DE4B81842F8061F80187A7EB
:1052B00069817A81443029F06115710511F461E04A
:1052C00070E041E0C80104DFF801108A88E2818BB8
:1052D000C801D5DE84E0F80180AB11AA42E06CE1A0
:1052E00070E0C8014A96E9DDF80192AB83ABB801E2
:1052F00086E390E01BD52396E4E00C94C1310F9334
:105300001F93CF93DF93EC018B01CB018896988B91
:10531000898BCE01A0DE1AAA1BAAB801645E7F4F5A
:1053200042E0CE014A96C9DD9AAB8BABBE01C80103
:10533000C696FCD4DF91CF911F910F910895CF9322
:10534000DF93EC0175DE188A8CE2898BCE0197DE43
:1053500082E18FA740E061E070E0CE01B9DE1EA2DD
:105360001FA28091590188A719A68D5F80935901CA
:1053700082E08EAB84E08FAB85E088AF19AE80E62B
:105380008EA78AE088AB19AA42E060E270E0CE0105
:105390004A9693DD9AAB8BABBE018AE390E0C6D40C
:1053A000DF91CF9108950F931F93CF93DF93EC017B
:1053B0008B016091AD067091AE0640E069DF89E136
:1053C0008FA7B801CE019BDFDF91CF911F910F9185
:1053D0000895640F751F4617570741F0FA0124918D
:1053E000FC012193CF014F5F5F4FF5CF0895A0E0FF
:1053F000B0E0ECEFF9E2A3C7EC017B015A016901CF
:10540000E9EDF6E0AE014A5F5F4FD8012D918D01C5
:10541000DC012D93CD012191DA012D93AD01B6E090
:10542000EF3DFB0791F788E08C871D8645E758E044
:1054300069E070E0CE010E96CCDF809141018B8B4C
:105440008F5F80934101188A81E18F8BA501DE0176
:105450005E9665ED76E0FA018191AF018D93FB01D7
:105460002191BF01CD010597FC012083F6E0693D44
:105470007F0789F7DCA2CDA2FAA2EBA21EA218A692
:1054800019A6CDB7DEB7EAE076C70F931F93CF9387
:10549000DF93EC018B01CB014C96898B988BCE016D
:1054A000DADDC80108968FA39EA3B801605F7F4F25
:1054B00041E0CE014A9601DD89A798A7BE01C80147
:1054C0008A9634D4DF91CF911F910F9108950F9355
:1054D0001F93CF93DF93EC018B018091D506882336
:1054E00009F445C0CE01AE014A5F5F4FE9EDF6E039
:1054F0003FEFDC013D93CD012191DA012D93AD0108
:10550000B6E0EF3DFB07A9F788E08C8786E08D8742
:105510004DE658E068E070E0CE010E965ADFDE01FD
:10552000909649ED56E0FA012191AF01CD010A971D
:10553000FC0120831D92F6E04F3D5F07A1F7B80103
:10554000DE01969645ED56E0FB018191BF018D93FA
:10555000FA012191AF01CD010B97FC012083F6E008
:10556000493D5F0789F7BE018AE290E0DFD3DF9112
:10557000CF911F910F91089581E09091B0069230E4
:1055800009F480E00895509377074093760721E06F
:105590002093B0066093AF06E1EBF6E0DC012D91BD
:1055A000CD012193B6E0E53BFB07C1F70895FF92DB
:1055B0000F931F93CF93DF93EC01F62E8A01E8EC53
:1055C000F6E09C0189ED96E0BE016A5F7F4F419154
:1055D000D9014D939D01DC014D91CD01DB014D932E
:1055E000BD01B6E0EE3CFB0791F788E08C871D8695
:1055F00045E758E069E070E0CE010E96EADE8CE205
:10560000898B809141018B8B8F5F8093410186E074
:105610008F8B6EEC76E0DE015E9685ED96E0FB0109
:105620002191BF012D93FC014191CF019D01255096
:105630003109F9014083F6E0623D7F0781F7CE0131
:105640000ADD1CA30DA38BE08AA3FBA2FE01B69684
:1056500088E011928150E9F78091590188A78D5F08
:105660008093590180E68EA792E09FA783E088ABE4
:1056700019AA1AAA1BAA1CAA1DAA9EAB94E09FAB4A
:1056800088AF86E189AF42E060E270E0CE014A96E1
:1056900014DC9AAB8BABBE018AE390E047D3CDB765
:1056A000DEB7E5E06DC60F931F93CF93DF93909322
:1056B000C4068093C3067093C2066093C106E901D5
:1056C000EEECF6E08991819386E0E23DF807D1F7B0
:1056D000D801E8ECF6E08D91819386E0EE3CF80786
:1056E000D1F75093C6064093C50681E08093C70664
:1056F0008091D2068F5F883018F48093D20602C062
:105700001092D2068091D206DF91CF911F910F9116
:105710000895A0E0B0E0EEE8FBE20BC6EC015B010F
:105720004A01290138018701F9D2882319F1D09360
:10573000BC06C093BB06B092BA06A092B90690927E
:10574000B8068092B7061092BF065092BE064092ED
:10575000BD069301A60163E179E281EE96E2A3DF43
:105760008093C00690913B07E92FF0E0E85BFE4F85
:10577000980F9083CDB7DEB7E0E1F7C5A1E0B0E0C8
:10578000E3ECFBE2DEC56C018B016115710509F0EC
:105790004EC08091B006893069F4809146019091A5
:1057A0004701892B39F4BAD2882321F061EB76E0E6
:1057B000C6018DDE8091B006813081F4AFD288239E
:1057C00069F061EB76E0C60182DE8091B006886008
:1057D0008093B006109247011092460180914601D5
:1057E00090914701019690934701809346018091E3
:1057F000C706813009F04BC191D2882309F447C113
:1058000082E08093C706609158016F5F60935801F2
:105810004091C5065091C6066F718091D20620E274
:10582000829FC0011124682BC601C1DE30C1CADBD2
:10583000882349F1D60155968C91813011F4C60127
:105840005BDC8091B00683FF22C1F601158912301E
:1058500009F01DC144E050E061EB76E0C6014C96D2
:10586000EFD6892B09F013C1A6014A5E5F4FE09184
:105870007607F09177076091AF0681EB96E0099586
:105880001093B00604C1B801C601B6DB882309F441
:10589000FEC0D60157968C915797813091F492961D
:1058A0009C91983009F0F6C0E091D306F091D406AF
:1058B000309719F0C6014A960995B801C6014EDC29
:1058C000E6C00633110518F4863009F0E0C0F60191
:1058D00094A19B3009F0AEC0D092B606C092B50636
:1058E0006EEC76E0C6015FDB882309F4D0C0D601F8
:1058F0009F962C919F9722FF13C0E091C306F091D1
:10590000C406309709F47EC095968C9120E030E073
:1059100040E050E063E0829586958770099572C0FB
:10592000C601298335DC7C018091C706298182303C
:1059300089F5822F807122712231F9F440E060E014
:1059400070E0C601A5DC88E1F60187A7E091C106F9
:10595000F091C206309741F0D60193968C918295D2
:1059600086958770099502C080E090E023E020933F
:10597000C706BC01C601C3DC8AC091E09093C7068C
:10598000811104C0B7016F5F7F4F02C060E070E01B
:1059900044E06CC08330C1F5E114F104A9F184E066
:1059A0008093C706E091C306F091C406309761F179
:1059B000D6019E964C9142954F70B4E04B9FA0014A
:1059C0001124C80108974E5D5F4F8417950708F4AE
:1059D000AC01C701840F951F0817190720F498011F
:1059E000241B350B01C09701D60195968C9160E080
:1059F0008295869587700995882331F041E0B7013B
:105A0000C60146DC85E00DC08091C706853061F493
:105A1000F60187A580FF08C040E1B701C60138DC68
:105A200086E08093C70633C0E114F10481F140E0C1
:105A3000B7011CC0863059F5911129C085A1803568
:105A400031F5F7A4F1FE03C0C60179DC20C0F4FEF5
:105A50001EC0C6019DDB9093AE068093AD06892BD8
:105A600041F4F0FE14C040E060E070E0C60110DCDC
:105A70000EC0F60186A582958F70F4E08F9FC0015D
:105A800011248296085011090817190738F480E08C
:105A900090E004C006331105D0F319CF2196E8E059
:105AA0006CC42A98962F9F71982B9EBD0DB407FE4B
:105AB000FDCF1EBC0DB407FEFDCF67FD03C02A9AC3
:105AC0008EB508951EBC0DB407FEFDCFF8CF2A9801
:105AD0006F71682B6EBD0DB407FEFDCF4EBD0DB4CA
